{
  "contractName": "CrowdFunding",
  "abi": [
    {
      "inputs": [
        {
          "internalType": "uint256",
          "name": "",
          "type": "uint256"
        },
        {
          "internalType": "address",
          "name": "",
          "type": "address"
        }
      ],
      "name": "isParticipate",
      "outputs": [
        {
          "internalType": "bool",
          "name": "",
          "type": "bool"
        }
      ],
      "stateMutability": "view",
      "type": "function"
    },
    {
      "inputs": [],
      "name": "numCampaign",
      "outputs": [
        {
          "internalType": "uint256",
          "name": "",
          "type": "uint256"
        }
      ],
      "stateMutability": "view",
      "type": "function"
    },
    {
      "inputs": [
        {
          "internalType": "address payable",
          "name": "receiver",
          "type": "address"
        },
        {
          "internalType": "uint256",
          "name": "goal",
          "type": "uint256"
        }
      ],
      "name": "newCampaign",
      "outputs": [
        {
          "internalType": "uint256",
          "name": "campaignID",
          "type": "uint256"
        }
      ],
      "stateMutability": "nonpayable",
      "type": "function"
    },
    {
      "inputs": [
        {
          "internalType": "uint256",
          "name": "campaignID",
          "type": "uint256"
        }
      ],
      "name": "bid",
      "outputs": [],
      "stateMutability": "payable",
      "type": "function"
    },
    {
      "inputs": [
        {
          "internalType": "uint256",
          "name": "campaignID",
          "type": "uint256"
        }
      ],
      "name": "withraw",
      "outputs": [
        {
          "internalType": "bool",
          "name": "reached",
          "type": "bool"
        }
      ],
      "stateMutability": "nonpayable",
      "type": "function"
    }
  ],
  "bytecode": "0x608060405234801561001057600080fd5b5061078f806100206000396000f3fe60806040526004361061004a5760003560e01c8063454a2ab31461004f578063728dda191461006b5780638129dfc9146100a8578063f03cc2b9146100d3578063f7572cf314610110575b600080fd5b610069600480360381019061006491906104e2565b61014d565b005b34801561007757600080fd5b50610092600480360381019061008d919061056d565b610332565b60405161009f91906105c8565b60405180910390f35b3480156100b457600080fd5b506100bd610361565b6040516100ca91906105f2565b60405180910390f35b3480156100df57600080fd5b506100fa60048036038101906100f591906104e2565b610367565b60405161010791906105c8565b60405180910390f35b34801561011c57600080fd5b506101376004803603810190610132919061064b565b610423565b60405161014491906105f2565b60405180910390f35b80600015156003600083815260200190815260200160002060003373ffffffffffffffffffffffffffffffffffffffff1673ffffffffffffffffffffffffffffffffffffffff16815260200190815260200160002060009054906101000a900460ff161515146101bc57600080fd5b6000600160008481526020019081526020016000209050348160030160008282546101e791906106ba565b92505081905550600181600101600082825461020391906106ba565b925050819055506002600084815260200190815260200160002060405180604001604052803373ffffffffffffffffffffffffffffffffffffffff16815260200134815250908060018154018082558091505060019003906000526020600020906002020160009091909190915060008201518160000160006101000a81548173ffffffffffffffffffffffffffffffffffffffff021916908373ffffffffffffffffffffffffffffffffffffffff16021790555060208201518160010155505060016003600085815260200190815260200160002060003373ffffffffffffffffffffffffffffffffffffffff1673ffffffffffffffffffffffffffffffffffffffff16815260200190815260200160002060006101000a81548160ff021916908315150217905550505050565b60036020528160005260406000206020528060005260406000206000915091509054906101000a900460ff1681565b60005481565b60008060016000848152602001908152602001600020905080600201548160030154101561039957600091505061041e565b600081600301549050600082600301819055508160000160009054906101000a900473ffffffffffffffffffffffffffffffffffffffff1673ffffffffffffffffffffffffffffffffffffffff166108fc829081150290604051600060405180830381858888f19350505050158015610416573d6000803e3d6000fd5b506001925050505b919050565b600080600081548092919061043790610710565b9190505590506000600160008381526020019081526020016000209050838160000160006101000a81548173ffffffffffffffffffffffffffffffffffffffff021916908373ffffffffffffffffffffffffffffffffffffffff1602179055508281600201819055505092915050565b600080fd5b6000819050919050565b6104bf816104ac565b81146104ca57600080fd5b50565b6000813590506104dc816104b6565b92915050565b6000602082840312156104f8576104f76104a7565b5b6000610506848285016104cd565b91505092915050565b600073ffffffffffffffffffffffffffffffffffffffff82169050919050565b600061053a8261050f565b9050919050565b61054a8161052f565b811461055557600080fd5b50565b60008135905061056781610541565b92915050565b60008060408385031215610584576105836104a7565b5b6000610592858286016104cd565b92505060206105a385828601610558565b9150509250929050565b60008115159050919050565b6105c2816105ad565b82525050565b60006020820190506105dd60008301846105b9565b92915050565b6105ec816104ac565b82525050565b600060208201905061060760008301846105e3565b92915050565b60006106188261050f565b9050919050565b6106288161060d565b811461063357600080fd5b50565b6000813590506106458161061f565b92915050565b60008060408385031215610662576106616104a7565b5b600061067085828601610636565b9250506020610681858286016104cd565b9150509250929050565b7f4e487b7100000000000000000000000000000000000000000000000000000000600052601160045260246000fd5b60006106c5826104ac565b91506106d0836104ac565b9250827fffffffffffffffffffffffffffffffffffffffffffffffffffffffffffffffff038211156107055761070461068b565b5b828201905092915050565b600061071b826104ac565b91507fffffffffffffffffffffffffffffffffffffffffffffffffffffffffffffffff82141561074e5761074d61068b565b5b60018201905091905056fea264697066735822122062db5b0a67227c69d527d6ed4e723b714cbc16a8897ebb74fcc6d59a971a13b864736f6c634300080b0033",
  "immutableReferences": {},
  "source": "pragma solidity 0.8.11;\n\n\ncontract CrowdFunding{\n    struct Campaign{\n        address payable receiver;\n        uint numFunders;\n        uint fundingGoal;\n        uint totalAmount;\n    }\n\n    struct Funder{\n        address addr;\n        uint amount;\n    }\n\n    uint public numCampaign;\n    mapping(uint=>Campaign) campaigns;\n    mapping(uint=>Funder[]) funders;\n    mapping(uint=>mapping(address=>bool)) public isParticipate;\n\n    modifier judgeParticipate(uint campaignID){\n        require(isParticipate[campaignID][msg.sender] == false);\n        _;\n    }\n\n    function newCampaign(address payable receiver,uint goal) external returns(uint campaignID){\n        campaignID = numCampaign++;\n        Campaign storage c = campaigns[campaignID];\n        c.receiver = receiver;\n        c.fundingGoal = goal;\n\n    }\n\n    function bid (uint campaignID) external payable judgeParticipate(campaignID) {\n        Campaign storage c = campaigns[campaignID];\n\n        c.totalAmount += msg.value;\n        c.numFunders +=1;\n\n        funders[campaignID].push(Funder({\n            addr:msg.sender,\n            amount:msg.value\n        }));\n\n        isParticipate[campaignID][msg.sender] = true;\n    }\n\n    function withraw(uint campaignID) external returns(bool reached){\n        Campaign storage c = campaigns[campaignID];\n\n        if(c.totalAmount < c.fundingGoal){\n            return false;\n        }\n\n        uint amount = c.totalAmount;\n        c.totalAmount = 0;\n        c.receiver.transfer(amount);\n\n        return true;\n    }\n}",
  "sourcePath": "/Users/songen/Desktop/123/truffle/contracts/crowdFunding.sol",
  "compiler": {
    "name": "solc",
    "version": "0.8.11+commit.d7f03943.Emscripten.clang"
  },
  "schemaVersion": "3.4.13",
  "updatedAt": "2023-04-05T17:14:47.993Z",
  "devdoc": {
    "kind": "dev",
    "methods": {},
    "version": 1
  },
  "userdoc": {
    "kind": "user",
    "methods": {},
    "version": 1
  }
}