{
  "contractName": "Mintable721",
  "abi": [
    {
      "inputs": [
        {
          "internalType": "string",
          "name": "_name",
          "type": "string"
        },
        {
          "internalType": "string",
          "name": "_symbol",
          "type": "string"
        }
      ],
      "stateMutability": "nonpayable",
      "type": "constructor"
    },
    {
      "anonymous": false,
      "inputs": [
        {
          "indexed": true,
          "internalType": "address",
          "name": "owner",
          "type": "address"
        },
        {
          "indexed": true,
          "internalType": "address",
          "name": "approved",
          "type": "address"
        },
        {
          "indexed": true,
          "internalType": "uint256",
          "name": "tokenId",
          "type": "uint256"
        }
      ],
      "name": "Approval",
      "type": "event"
    },
    {
      "anonymous": false,
      "inputs": [
        {
          "indexed": true,
          "internalType": "address",
          "name": "owner",
          "type": "address"
        },
        {
          "indexed": true,
          "internalType": "address",
          "name": "operator",
          "type": "address"
        },
        {
          "indexed": false,
          "internalType": "bool",
          "name": "approved",
          "type": "bool"
        }
      ],
      "name": "ApprovalForAll",
      "type": "event"
    },
    {
      "anonymous": false,
      "inputs": [
        {
          "indexed": true,
          "internalType": "address",
          "name": "previousOwner",
          "type": "address"
        },
        {
          "indexed": true,
          "internalType": "address",
          "name": "newOwner",
          "type": "address"
        }
      ],
      "name": "OwnershipTransferred",
      "type": "event"
    },
    {
      "anonymous": false,
      "inputs": [
        {
          "indexed": true,
          "internalType": "address",
          "name": "from",
          "type": "address"
        },
        {
          "indexed": true,
          "internalType": "address",
          "name": "to",
          "type": "address"
        },
        {
          "indexed": true,
          "internalType": "uint256",
          "name": "tokenId",
          "type": "uint256"
        }
      ],
      "name": "Transfer",
      "type": "event"
    },
    {
      "inputs": [],
      "name": "_CUR_TOKEN_",
      "outputs": [
        {
          "internalType": "uint256",
          "name": "",
          "type": "uint256"
        }
      ],
      "stateMutability": "view",
      "type": "function",
      "constant": true
    },
    {
      "inputs": [
        {
          "internalType": "address",
          "name": "to",
          "type": "address"
        },
        {
          "internalType": "uint256",
          "name": "tokenId",
          "type": "uint256"
        }
      ],
      "name": "approve",
      "outputs": [],
      "stateMutability": "nonpayable",
      "type": "function"
    },
    {
      "inputs": [
        {
          "internalType": "address",
          "name": "owner",
          "type": "address"
        }
      ],
      "name": "balanceOf",
      "outputs": [
        {
          "internalType": "uint256",
          "name": "",
          "type": "uint256"
        }
      ],
      "stateMutability": "view",
      "type": "function",
      "constant": true
    },
    {
      "inputs": [
        {
          "internalType": "uint256",
          "name": "tokenId",
          "type": "uint256"
        }
      ],
      "name": "getApproved",
      "outputs": [
        {
          "internalType": "address",
          "name": "",
          "type": "address"
        }
      ],
      "stateMutability": "view",
      "type": "function",
      "constant": true
    },
    {
      "inputs": [
        {
          "internalType": "address",
          "name": "owner",
          "type": "address"
        },
        {
          "internalType": "address",
          "name": "operator",
          "type": "address"
        }
      ],
      "name": "isApprovedForAll",
      "outputs": [
        {
          "internalType": "bool",
          "name": "",
          "type": "bool"
        }
      ],
      "stateMutability": "view",
      "type": "function",
      "constant": true
    },
    {
      "inputs": [],
      "name": "name",
      "outputs": [
        {
          "internalType": "string",
          "name": "",
          "type": "string"
        }
      ],
      "stateMutability": "view",
      "type": "function",
      "constant": true
    },
    {
      "inputs": [],
      "name": "owner",
      "outputs": [
        {
          "internalType": "address",
          "name": "",
          "type": "address"
        }
      ],
      "stateMutability": "view",
      "type": "function",
      "constant": true
    },
    {
      "inputs": [
        {
          "internalType": "uint256",
          "name": "tokenId",
          "type": "uint256"
        }
      ],
      "name": "ownerOf",
      "outputs": [
        {
          "internalType": "address",
          "name": "",
          "type": "address"
        }
      ],
      "stateMutability": "view",
      "type": "function",
      "constant": true
    },
    {
      "inputs": [],
      "name": "renounceOwnership",
      "outputs": [],
      "stateMutability": "nonpayable",
      "type": "function"
    },
    {
      "inputs": [
        {
          "internalType": "address",
          "name": "from",
          "type": "address"
        },
        {
          "internalType": "address",
          "name": "to",
          "type": "address"
        },
        {
          "internalType": "uint256",
          "name": "tokenId",
          "type": "uint256"
        }
      ],
      "name": "safeTransferFrom",
      "outputs": [],
      "stateMutability": "nonpayable",
      "type": "function"
    },
    {
      "inputs": [
        {
          "internalType": "address",
          "name": "from",
          "type": "address"
        },
        {
          "internalType": "address",
          "name": "to",
          "type": "address"
        },
        {
          "internalType": "uint256",
          "name": "tokenId",
          "type": "uint256"
        },
        {
          "internalType": "bytes",
          "name": "data",
          "type": "bytes"
        }
      ],
      "name": "safeTransferFrom",
      "outputs": [],
      "stateMutability": "nonpayable",
      "type": "function"
    },
    {
      "inputs": [
        {
          "internalType": "address",
          "name": "operator",
          "type": "address"
        },
        {
          "internalType": "bool",
          "name": "approved",
          "type": "bool"
        }
      ],
      "name": "setApprovalForAll",
      "outputs": [],
      "stateMutability": "nonpayable",
      "type": "function"
    },
    {
      "inputs": [
        {
          "internalType": "bytes4",
          "name": "interfaceId",
          "type": "bytes4"
        }
      ],
      "name": "supportsInterface",
      "outputs": [
        {
          "internalType": "bool",
          "name": "",
          "type": "bool"
        }
      ],
      "stateMutability": "view",
      "type": "function",
      "constant": true
    },
    {
      "inputs": [],
      "name": "symbol",
      "outputs": [
        {
          "internalType": "string",
          "name": "",
          "type": "string"
        }
      ],
      "stateMutability": "view",
      "type": "function",
      "constant": true
    },
    {
      "inputs": [
        {
          "internalType": "uint256",
          "name": "tokenId",
          "type": "uint256"
        }
      ],
      "name": "tokenURI",
      "outputs": [
        {
          "internalType": "string",
          "name": "",
          "type": "string"
        }
      ],
      "stateMutability": "view",
      "type": "function",
      "constant": true
    },
    {
      "inputs": [
        {
          "internalType": "address",
          "name": "from",
          "type": "address"
        },
        {
          "internalType": "address",
          "name": "to",
          "type": "address"
        },
        {
          "internalType": "uint256",
          "name": "tokenId",
          "type": "uint256"
        }
      ],
      "name": "transferFrom",
      "outputs": [],
      "stateMutability": "nonpayable",
      "type": "function"
    },
    {
      "inputs": [
        {
          "internalType": "address",
          "name": "newOwner",
          "type": "address"
        }
      ],
      "name": "transferOwnership",
      "outputs": [],
      "stateMutability": "nonpayable",
      "type": "function"
    },
    {
      "inputs": [
        {
          "internalType": "address[]",
          "name": "receivers",
          "type": "address[]"
        },
        {
          "internalType": "string[]",
          "name": "uris",
          "type": "string[]"
        }
      ],
      "name": "mint",
      "outputs": [],
      "stateMutability": "nonpayable",
      "type": "function"
    }
  ],
  "bytecode": "0x60806040523480156200001157600080fd5b506040516200336f3803806200336f8339818101604052810190620000379190620003b0565b818181600090805190602001906200005192919062000163565b5080600190805190602001906200006a92919062000163565b5050506200008d620000816200009560201b60201c565b6200009d60201b60201c565b50506200049a565b600033905090565b6000600760009054906101000a900473ffffffffffffffffffffffffffffffffffffffff16905081600760006101000a81548173ffffffffffffffffffffffffffffffffffffffff021916908373ffffffffffffffffffffffffffffffffffffffff1602179055508173ffffffffffffffffffffffffffffffffffffffff168173ffffffffffffffffffffffffffffffffffffffff167f8be0079c531659141344cd1fd0a4f28419497f9722a3daafe3b4186f6b6457e060405160405180910390a35050565b828054620001719062000464565b90600052602060002090601f016020900481019282620001955760008555620001e1565b82601f10620001b057805160ff1916838001178555620001e1565b82800160010185558215620001e1579182015b82811115620001e0578251825591602001919060010190620001c3565b5b509050620001f09190620001f4565b5090565b5b808211156200020f576000816000905550600101620001f5565b5090565b6000604051905090565b600080fd5b600080fd5b600080fd5b600080fd5b6000601f19601f8301169050919050565b7f4e487b7100000000000000000000000000000000000000000000000000000000600052604160045260246000fd5b6200027c8262000231565b810181811067ffffffffffffffff821117156200029e576200029d62000242565b5b80604052505050565b6000620002b362000213565b9050620002c1828262000271565b919050565b600067ffffffffffffffff821115620002e457620002e362000242565b5b620002ef8262000231565b9050602081019050919050565b60005b838110156200031c578082015181840152602081019050620002ff565b838111156200032c576000848401525b50505050565b6000620003496200034384620002c6565b620002a7565b9050828152602081018484840111156200036857620003676200022c565b5b62000375848285620002fc565b509392505050565b600082601f83011262000395576200039462000227565b5b8151620003a784826020860162000332565b91505092915050565b60008060408385031215620003ca57620003c96200021d565b5b600083015167ffffffffffffffff811115620003eb57620003ea62000222565b5b620003f9858286016200037d565b925050602083015167ffffffffffffffff8111156200041d576200041c62000222565b5b6200042b858286016200037d565b9150509250929050565b7f4e487b7100000000000000000000000000000000000000000000000000000000600052602260045260246000fd5b600060028204905060018216806200047d57607f821691505b6020821081141562000494576200049362000435565b5b50919050565b612ec580620004aa6000396000f3fe608060405234801561001057600080fd5b50600436106101165760003560e01c8063715018a6116100a2578063ac84ba5811610071578063ac84ba58146102cb578063b88d4fde146102e9578063c87b56dd14610305578063e985e9c514610335578063f2fde38b1461036557610116565b8063715018a6146102695780638da5cb5b1461027357806395d89b4114610291578063a22cb465146102af57610116565b806323b872dd116100e957806323b872dd146101b557806342842e0e146101d15780634c7bc5cf146101ed5780636352211e1461020957806370a082311461023957610116565b806301ffc9a71461011b57806306fdde031461014b578063081812fc14610169578063095ea7b314610199575b600080fd5b61013560048036038101906101309190611d81565b610381565b6040516101429190611dc9565b60405180910390f35b610153610463565b6040516101609190611e7d565b60405180910390f35b610183600480360381019061017e9190611ed5565b6104f5565b6040516101909190611f43565b60405180910390f35b6101b360048036038101906101ae9190611f8a565b61053b565b005b6101cf60048036038101906101ca9190611fca565b610653565b005b6101eb60048036038101906101e69190611fca565b6106b3565b005b610207600480360381019061020291906120d8565b6106d3565b005b610223600480360381019061021e9190611ed5565b6107be565b6040516102309190611f43565b60405180910390f35b610253600480360381019061024e9190612159565b610845565b6040516102609190612195565b60405180910390f35b6102716108fd565b005b61027b610911565b6040516102889190611f43565b60405180910390f35b61029961093b565b6040516102a69190611e7d565b60405180910390f35b6102c960048036038101906102c491906121dc565b6109cd565b005b6102d36109e3565b6040516102e09190612195565b60405180910390f35b61030360048036038101906102fe919061234c565b6109e9565b005b61031f600480360381019061031a9190611ed5565b610a4b565b60405161032c9190611e7d565b60405180910390f35b61034f600480360381019061034a91906123cf565b610b5e565b60405161035c9190611dc9565b60405180910390f35b61037f600480360381019061037a9190612159565b610bf2565b005b60007f80ac58cd000000000000000000000000000000000000000000000000000000007bffffffffffffffffffffffffffffffffffffffffffffffffffffffff1916827bffffffffffffffffffffffffffffffffffffffffffffffffffffffff1916148061044c57507f5b5e139f000000000000000000000000000000000000000000000000000000007bffffffffffffffffffffffffffffffffffffffffffffffffffffffff1916827bffffffffffffffffffffffffffffffffffffffffffffffffffffffff1916145b8061045c575061045b82610c76565b5b9050919050565b6060600080546104729061243e565b80601f016020809104026020016040519081016040528092919081815260200182805461049e9061243e565b80156104eb5780601f106104c0576101008083540402835291602001916104eb565b820191906000526020600020905b8154815290600101906020018083116104ce57829003601f168201915b5050505050905090565b600061050082610ce0565b6004600083815260200190815260200160002060009054906101000a900473ffffffffffffffffffffffffffffffffffffffff169050919050565b6000610546826107be565b90508073ffffffffffffffffffffffffffffffffffffffff168373ffffffffffffffffffffffffffffffffffffffff1614156105b7576040517f08c379a00000000000000000000000000000000000000000000000000000000081526004016105ae906124e2565b60405180910390fd5b8073ffffffffffffffffffffffffffffffffffffffff166105d6610d2b565b73ffffffffffffffffffffffffffffffffffffffff1614806106055750610604816105ff610d2b565b610b5e565b5b610644576040517f08c379a000000000000000000000000000000000000000000000000000000000815260040161063b90612574565b60405180910390fd5b61064e8383610d33565b505050565b61066461065e610d2b565b82610dec565b6106a3576040517f08c379a000000000000000000000000000000000000000000000000000000000815260040161069a90612606565b60405180910390fd5b6106ae838383610e81565b505050565b6106ce838383604051806020016040528060008152506109e9565b505050565b6106db61117b565b60005b848490508110156107b75761071c8585838181106106ff576106fe612626565b5b90506020020160208101906107149190612159565b6008546111f9565b61078f60085484848481811061073557610734612626565b5b90506020028101906107479190612664565b8080601f016020809104026020016040519081016040528093929190818152602001838380828437600081840152601f19601f82011690508083019250505050505050611217565b600160085461079e91906126f6565b60088190555080806107af9061274c565b9150506106de565b5050505050565b6000806107ca8361128b565b9050600073ffffffffffffffffffffffffffffffffffffffff168173ffffffffffffffffffffffffffffffffffffffff16141561083c576040517f08c379a0000000000000000000000000000000000000000000000000000000008152600401610833906127e1565b60405180910390fd5b80915050919050565b60008073ffffffffffffffffffffffffffffffffffffffff168273ffffffffffffffffffffffffffffffffffffffff1614156108b6576040517f08c379a00000000000000000000000000000000000000000000000000000000081526004016108ad90612873565b60405180910390fd5b600360008373ffffffffffffffffffffffffffffffffffffffff1673ffffffffffffffffffffffffffffffffffffffff168152602001908152602001600020549050919050565b61090561117b565b61090f60006112c8565b565b6000600760009054906101000a900473ffffffffffffffffffffffffffffffffffffffff16905090565b60606001805461094a9061243e565b80601f01602080910402602001604051908101604052809291908181526020018280546109769061243e565b80156109c35780601f10610998576101008083540402835291602001916109c3565b820191906000526020600020905b8154815290600101906020018083116109a657829003601f168201915b5050505050905090565b6109df6109d8610d2b565b838361138e565b5050565b60085481565b6109fa6109f4610d2b565b83610dec565b610a39576040517f08c379a0000000000000000000000000000000000000000000000000000000008152600401610a3090612606565b60405180910390fd5b610a45848484846114fb565b50505050565b6060610a5682610ce0565b6000600660008481526020019081526020016000208054610a769061243e565b80601f0160208091040260200160405190810160405280929190818152602001828054610aa29061243e565b8015610aef5780601f10610ac457610100808354040283529160200191610aef565b820191906000526020600020905b815481529060010190602001808311610ad257829003601f168201915b505050505090506000610b00611557565b9050600081511415610b16578192505050610b59565b600082511115610b4b578082604051602001610b339291906128cf565b60405160208183030381529060405292505050610b59565b610b548461156e565b925050505b919050565b6000600560008473ffffffffffffffffffffffffffffffffffffffff1673ffffffffffffffffffffffffffffffffffffffff16815260200190815260200160002060008373ffffffffffffffffffffffffffffffffffffffff1673ffffffffffffffffffffffffffffffffffffffff16815260200190815260200160002060009054906101000a900460ff16905092915050565b610bfa61117b565b600073ffffffffffffffffffffffffffffffffffffffff168173ffffffffffffffffffffffffffffffffffffffff161415610c6a576040517f08c379a0000000000000000000000000000000000000000000000000000000008152600401610c6190612965565b60405180910390fd5b610c73816112c8565b50565b60007f01ffc9a7000000000000000000000000000000000000000000000000000000007bffffffffffffffffffffffffffffffffffffffffffffffffffffffff1916827bffffffffffffffffffffffffffffffffffffffffffffffffffffffff1916149050919050565b610ce9816115d6565b610d28576040517f08c379a0000000000000000000000000000000000000000000000000000000008152600401610d1f906127e1565b60405180910390fd5b50565b600033905090565b816004600083815260200190815260200160002060006101000a81548173ffffffffffffffffffffffffffffffffffffffff021916908373ffffffffffffffffffffffffffffffffffffffff160217905550808273ffffffffffffffffffffffffffffffffffffffff16610da6836107be565b73ffffffffffffffffffffffffffffffffffffffff167f8c5be1e5ebec7d5bd14f71427d1e84f3dd0314c0f7b2291e5b200ac8c7c3b92560405160405180910390a45050565b600080610df8836107be565b90508073ffffffffffffffffffffffffffffffffffffffff168473ffffffffffffffffffffffffffffffffffffffff161480610e3a5750610e398185610b5e565b5b80610e7857508373ffffffffffffffffffffffffffffffffffffffff16610e60846104f5565b73ffffffffffffffffffffffffffffffffffffffff16145b91505092915050565b8273ffffffffffffffffffffffffffffffffffffffff16610ea1826107be565b73ffffffffffffffffffffffffffffffffffffffff1614610ef7576040517f08c379a0000000000000000000000000000000000000000000000000000000008152600401610eee906129f7565b60405180910390fd5b600073ffffffffffffffffffffffffffffffffffffffff168273ffffffffffffffffffffffffffffffffffffffff161415610f67576040517f08c379a0000000000000000000000000000000000000000000000000000000008152600401610f5e90612a89565b60405180910390fd5b610f748383836001611617565b8273ffffffffffffffffffffffffffffffffffffffff16610f94826107be565b73ffffffffffffffffffffffffffffffffffffffff1614610fea576040517f08c379a0000000000000000000000000000000000000000000000000000000008152600401610fe1906129f7565b60405180910390fd5b6004600082815260200190815260200160002060006101000a81549073ffffffffffffffffffffffffffffffffffffffff02191690556001600360008573ffffffffffffffffffffffffffffffffffffffff1673ffffffffffffffffffffffffffffffffffffffff168152602001908152602001600020600082825403925050819055506001600360008473ffffffffffffffffffffffffffffffffffffffff1673ffffffffffffffffffffffffffffffffffffffff16815260200190815260200160002060008282540192505081905550816002600083815260200190815260200160002060006101000a81548173ffffffffffffffffffffffffffffffffffffffff021916908373ffffffffffffffffffffffffffffffffffffffff160217905550808273ffffffffffffffffffffffffffffffffffffffff168473ffffffffffffffffffffffffffffffffffffffff167fddf252ad1be2c89b69c2b068fc378daa952ba7f163c4a11628f55a4df523b3ef60405160405180910390a4611176838383600161161d565b505050565b611183610d2b565b73ffffffffffffffffffffffffffffffffffffffff166111a1610911565b73ffffffffffffffffffffffffffffffffffffffff16146111f7576040517f08c379a00000000000000000000000000000000000000000000000000000000081526004016111ee90612af5565b60405180910390fd5b565b611213828260405180602001604052806000815250611623565b5050565b611220826115d6565b61125f576040517f08c379a000000000000000000000000000000000000000000000000000000000815260040161125690612b87565b60405180910390fd5b80600660008481526020019081526020016000209080519060200190611286929190611c72565b505050565b60006002600083815260200190815260200160002060009054906101000a900473ffffffffffffffffffffffffffffffffffffffff169050919050565b6000600760009054906101000a900473ffffffffffffffffffffffffffffffffffffffff16905081600760006101000a81548173ffffffffffffffffffffffffffffffffffffffff021916908373ffffffffffffffffffffffffffffffffffffffff1602179055508173ffffffffffffffffffffffffffffffffffffffff168173ffffffffffffffffffffffffffffffffffffffff167f8be0079c531659141344cd1fd0a4f28419497f9722a3daafe3b4186f6b6457e060405160405180910390a35050565b8173ffffffffffffffffffffffffffffffffffffffff168373ffffffffffffffffffffffffffffffffffffffff1614156113fd576040517f08c379a00000000000000000000000000000000000000000000000000000000081526004016113f490612bf3565b60405180910390fd5b80600560008573ffffffffffffffffffffffffffffffffffffffff1673ffffffffffffffffffffffffffffffffffffffff16815260200190815260200160002060008473ffffffffffffffffffffffffffffffffffffffff1673ffffffffffffffffffffffffffffffffffffffff16815260200190815260200160002060006101000a81548160ff0219169083151502179055508173ffffffffffffffffffffffffffffffffffffffff168373ffffffffffffffffffffffffffffffffffffffff167f17307eab39ab6107e8899845ad3d59bd9653f200f220920489ca2b5937696c31836040516114ee9190611dc9565b60405180910390a3505050565b611506848484610e81565b6115128484848461167e565b611551576040517f08c379a000000000000000000000000000000000000000000000000000000000815260040161154890612c85565b60405180910390fd5b50505050565b606060405180602001604052806000815250905090565b606061157982610ce0565b6000611583611557565b905060008151116115a357604051806020016040528060008152506115ce565b806115ad84611806565b6040516020016115be9291906128cf565b6040516020818303038152906040525b915050919050565b60008073ffffffffffffffffffffffffffffffffffffffff166115f88361128b565b73ffffffffffffffffffffffffffffffffffffffff1614159050919050565b50505050565b50505050565b61162d83836118de565b61163a600084848461167e565b611679576040517f08c379a000000000000000000000000000000000000000000000000000000000815260040161167090612c85565b60405180910390fd5b505050565b600061169f8473ffffffffffffffffffffffffffffffffffffffff16611afc565b156117f9578373ffffffffffffffffffffffffffffffffffffffff1663150b7a026116c8610d2b565b8786866040518563ffffffff1660e01b81526004016116ea9493929190612cfa565b6020604051808303816000875af192505050801561172657506040513d601f19601f820116820180604052508101906117239190612d5b565b60015b6117a9573d8060008114611756576040519150601f19603f3d011682016040523d82523d6000602084013e61175b565b606091505b506000815114156117a1576040517f08c379a000000000000000000000000000000000000000000000000000000000815260040161179890612c85565b60405180910390fd5b805181602001fd5b63150b7a0260e01b7bffffffffffffffffffffffffffffffffffffffffffffffffffffffff1916817bffffffffffffffffffffffffffffffffffffffffffffffffffffffff1916149150506117fe565b600190505b949350505050565b60606000600161181584611b1f565b01905060008167ffffffffffffffff81111561183457611833612221565b5b6040519080825280601f01601f1916602001820160405280156118665781602001600182028036833780820191505090505b509050600082602001820190505b6001156118d3578080600190039150507f3031323334353637383961626364656600000000000000000000000000000000600a86061a8153600a85816118bd576118bc612d88565b5b04945060008514156118ce576118d3565b611874565b819350505050919050565b600073ffffffffffffffffffffffffffffffffffffffff168273ffffffffffffffffffffffffffffffffffffffff16141561194e576040517f08c379a000000000000000000000000000000000000000000000000000000000815260040161194590612e03565b60405180910390fd5b611957816115d6565b15611997576040517f08c379a000000000000000000000000000000000000000000000000000000000815260040161198e90612e6f565b60405180910390fd5b6119a5600083836001611617565b6119ae816115d6565b156119ee576040517f08c379a00000000000000000000000000000000000000000000000000000000081526004016119e590612e6f565b60405180910390fd5b6001600360008473ffffffffffffffffffffffffffffffffffffffff1673ffffffffffffffffffffffffffffffffffffffff16815260200190815260200160002060008282540192505081905550816002600083815260200190815260200160002060006101000a81548173ffffffffffffffffffffffffffffffffffffffff021916908373ffffffffffffffffffffffffffffffffffffffff160217905550808273ffffffffffffffffffffffffffffffffffffffff16600073ffffffffffffffffffffffffffffffffffffffff167fddf252ad1be2c89b69c2b068fc378daa952ba7f163c4a11628f55a4df523b3ef60405160405180910390a4611af860008383600161161d565b5050565b6000808273ffffffffffffffffffffffffffffffffffffffff163b119050919050565b600080600090507a184f03e93ff9f4daa797ed6e38ed64bf6a1f0100000000000000008310611b7d577a184f03e93ff9f4daa797ed6e38ed64bf6a1f0100000000000000008381611b7357611b72612d88565b5b0492506040810190505b6d04ee2d6d415b85acef81000000008310611bba576d04ee2d6d415b85acef81000000008381611bb057611baf612d88565b5b0492506020810190505b662386f26fc100008310611be957662386f26fc100008381611bdf57611bde612d88565b5b0492506010810190505b6305f5e1008310611c12576305f5e1008381611c0857611c07612d88565b5b0492506008810190505b6127108310611c37576127108381611c2d57611c2c612d88565b5b0492506004810190505b60648310611c5a5760648381611c5057611c4f612d88565b5b0492506002810190505b600a8310611c69576001810190505b80915050919050565b828054611c7e9061243e565b90600052602060002090601f016020900481019282611ca05760008555611ce7565b82601f10611cb957805160ff1916838001178555611ce7565b82800160010185558215611ce7579182015b82811115611ce6578251825591602001919060010190611ccb565b5b509050611cf49190611cf8565b5090565b5b80821115611d11576000816000905550600101611cf9565b5090565b6000604051905090565b600080fd5b600080fd5b60007fffffffff0000000000000000000000000000000000000000000000000000000082169050919050565b611d5e81611d29565b8114611d6957600080fd5b50565b600081359050611d7b81611d55565b92915050565b600060208284031215611d9757611d96611d1f565b5b6000611da584828501611d6c565b91505092915050565b60008115159050919050565b611dc381611dae565b82525050565b6000602082019050611dde6000830184611dba565b92915050565b600081519050919050565b600082825260208201905092915050565b60005b83811015611e1e578082015181840152602081019050611e03565b83811115611e2d576000848401525b50505050565b6000601f19601f8301169050919050565b6000611e4f82611de4565b611e598185611def565b9350611e69818560208601611e00565b611e7281611e33565b840191505092915050565b60006020820190508181036000830152611e978184611e44565b905092915050565b6000819050919050565b611eb281611e9f565b8114611ebd57600080fd5b50565b600081359050611ecf81611ea9565b92915050565b600060208284031215611eeb57611eea611d1f565b5b6000611ef984828501611ec0565b91505092915050565b600073ffffffffffffffffffffffffffffffffffffffff82169050919050565b6000611f2d82611f02565b9050919050565b611f3d81611f22565b82525050565b6000602082019050611f586000830184611f34565b92915050565b611f6781611f22565b8114611f7257600080fd5b50565b600081359050611f8481611f5e565b92915050565b60008060408385031215611fa157611fa0611d1f565b5b6000611faf85828601611f75565b9250506020611fc085828601611ec0565b9150509250929050565b600080600060608486031215611fe357611fe2611d1f565b5b6000611ff186828701611f75565b935050602061200286828701611f75565b925050604061201386828701611ec0565b9150509250925092565b600080fd5b600080fd5b600080fd5b60008083601f8401126120425761204161201d565b5b8235905067ffffffffffffffff81111561205f5761205e612022565b5b60208301915083602082028301111561207b5761207a612027565b5b9250929050565b60008083601f8401126120985761209761201d565b5b8235905067ffffffffffffffff8111156120b5576120b4612022565b5b6020830191508360208202830111156120d1576120d0612027565b5b9250929050565b600080600080604085870312156120f2576120f1611d1f565b5b600085013567ffffffffffffffff8111156121105761210f611d24565b5b61211c8782880161202c565b9450945050602085013567ffffffffffffffff81111561213f5761213e611d24565b5b61214b87828801612082565b925092505092959194509250565b60006020828403121561216f5761216e611d1f565b5b600061217d84828501611f75565b91505092915050565b61218f81611e9f565b82525050565b60006020820190506121aa6000830184612186565b92915050565b6121b981611dae565b81146121c457600080fd5b50565b6000813590506121d6816121b0565b92915050565b600080604083850312156121f3576121f2611d1f565b5b600061220185828601611f75565b9250506020612212858286016121c7565b9150509250929050565b600080fd5b7f4e487b7100000000000000000000000000000000000000000000000000000000600052604160045260246000fd5b61225982611e33565b810181811067ffffffffffffffff8211171561227857612277612221565b5b80604052505050565b600061228b611d15565b90506122978282612250565b919050565b600067ffffffffffffffff8211156122b7576122b6612221565b5b6122c082611e33565b9050602081019050919050565b82818337600083830152505050565b60006122ef6122ea8461229c565b612281565b90508281526020810184848401111561230b5761230a61221c565b5b6123168482856122cd565b509392505050565b600082601f8301126123335761233261201d565b5b81356123438482602086016122dc565b91505092915050565b6000806000806080858703121561236657612365611d1f565b5b600061237487828801611f75565b945050602061238587828801611f75565b935050604061239687828801611ec0565b925050606085013567ffffffffffffffff8111156123b7576123b6611d24565b5b6123c38782880161231e565b91505092959194509250565b600080604083850312156123e6576123e5611d1f565b5b60006123f485828601611f75565b925050602061240585828601611f75565b9150509250929050565b7f4e487b7100000000000000000000000000000000000000000000000000000000600052602260045260246000fd5b6000600282049050600182168061245657607f821691505b6020821081141561246a5761246961240f565b5b50919050565b7f4552433732313a20617070726f76616c20746f2063757272656e74206f776e6560008201527f7200000000000000000000000000000000000000000000000000000000000000602082015250565b60006124cc602183611def565b91506124d782612470565b604082019050919050565b600060208201905081810360008301526124fb816124bf565b9050919050565b7f4552433732313a20617070726f76652063616c6c6572206973206e6f7420746f60008201527f6b656e206f776e6572206f7220617070726f76656420666f7220616c6c000000602082015250565b600061255e603d83611def565b915061256982612502565b604082019050919050565b6000602082019050818103600083015261258d81612551565b9050919050565b7f4552433732313a2063616c6c6572206973206e6f7420746f6b656e206f776e6560008201527f72206f7220617070726f76656400000000000000000000000000000000000000602082015250565b60006125f0602d83611def565b91506125fb82612594565b604082019050919050565b6000602082019050818103600083015261261f816125e3565b9050919050565b7f4e487b7100000000000000000000000000000000000000000000000000000000600052603260045260246000fd5b600080fd5b600080fd5b600080fd5b6000808335600160200384360303811261268157612680612655565b5b80840192508235915067ffffffffffffffff8211156126a3576126a261265a565b5b6020830192506001820236038313156126bf576126be61265f565b5b509250929050565b7f4e487b7100000000000000000000000000000000000000000000000000000000600052601160045260246000fd5b600061270182611e9f565b915061270c83611e9f565b9250827fffffffffffffffffffffffffffffffffffffffffffffffffffffffffffffffff03821115612741576127406126c7565b5b828201905092915050565b600061275782611e9f565b91507fffffffffffffffffffffffffffffffffffffffffffffffffffffffffffffffff82141561278a576127896126c7565b5b600182019050919050565b7f4552433732313a20696e76616c696420746f6b656e2049440000000000000000600082015250565b60006127cb601883611def565b91506127d682612795565b602082019050919050565b600060208201905081810360008301526127fa816127be565b9050919050565b7f4552433732313a2061646472657373207a65726f206973206e6f74206120766160008201527f6c6964206f776e65720000000000000000000000000000000000000000000000602082015250565b600061285d602983611def565b915061286882612801565b604082019050919050565b6000602082019050818103600083015261288c81612850565b9050919050565b600081905092915050565b60006128a982611de4565b6128b38185612893565b93506128c3818560208601611e00565b80840191505092915050565b60006128db828561289e565b91506128e7828461289e565b91508190509392505050565b7f4f776e61626c653a206e6577206f776e657220697320746865207a65726f206160008201527f6464726573730000000000000000000000000000000000000000000000000000602082015250565b600061294f602683611def565b915061295a826128f3565b604082019050919050565b6000602082019050818103600083015261297e81612942565b9050919050565b7f4552433732313a207472616e736665722066726f6d20696e636f72726563742060008201527f6f776e6572000000000000000000000000000000000000000000000000000000602082015250565b60006129e1602583611def565b91506129ec82612985565b604082019050919050565b60006020820190508181036000830152612a10816129d4565b9050919050565b7f4552433732313a207472616e7366657220746f20746865207a65726f2061646460008201527f7265737300000000000000000000000000000000000000000000000000000000602082015250565b6000612a73602483611def565b9150612a7e82612a17565b604082019050919050565b60006020820190508181036000830152612aa281612a66565b9050919050565b7f4f776e61626c653a2063616c6c6572206973206e6f7420746865206f776e6572600082015250565b6000612adf602083611def565b9150612aea82612aa9565b602082019050919050565b60006020820190508181036000830152612b0e81612ad2565b9050919050565b7f45524337323155524953746f726167653a2055524920736574206f66206e6f6e60008201527f6578697374656e7420746f6b656e000000000000000000000000000000000000602082015250565b6000612b71602e83611def565b9150612b7c82612b15565b604082019050919050565b60006020820190508181036000830152612ba081612b64565b9050919050565b7f4552433732313a20617070726f766520746f2063616c6c657200000000000000600082015250565b6000612bdd601983611def565b9150612be882612ba7565b602082019050919050565b60006020820190508181036000830152612c0c81612bd0565b9050919050565b7f4552433732313a207472616e7366657220746f206e6f6e20455243373231526560008201527f63656976657220696d706c656d656e7465720000000000000000000000000000602082015250565b6000612c6f603283611def565b9150612c7a82612c13565b604082019050919050565b60006020820190508181036000830152612c9e81612c62565b9050919050565b600081519050919050565b600082825260208201905092915050565b6000612ccc82612ca5565b612cd68185612cb0565b9350612ce6818560208601611e00565b612cef81611e33565b840191505092915050565b6000608082019050612d0f6000830187611f34565b612d1c6020830186611f34565b612d296040830185612186565b8181036060830152612d3b8184612cc1565b905095945050505050565b600081519050612d5581611d55565b92915050565b600060208284031215612d7157612d70611d1f565b5b6000612d7f84828501612d46565b91505092915050565b7f4e487b7100000000000000000000000000000000000000000000000000000000600052601260045260246000fd5b7f4552433732313a206d696e7420746f20746865207a65726f2061646472657373600082015250565b6000612ded602083611def565b9150612df882612db7565b602082019050919050565b60006020820190508181036000830152612e1c81612de0565b9050919050565b7f4552433732313a20746f6b656e20616c7265616479206d696e74656400000000600082015250565b6000612e59601c83611def565b9150612e6482612e23565b602082019050919050565b60006020820190508181036000830152612e8881612e4c565b905091905056fea26469706673582212205883e84e1c0ade6f54614224de8050b63f75b1157d68a90136ff9efd93b8c1eb64736f6c634300080b0033",
  "immutableReferences": {},
  "source": "import \"@openzeppelin/contracts/token/ERC721/extensions/ERC721URIStorage.sol\";\nimport \"@openzeppelin/contracts/token/ERC721/ERC721.sol\";\nimport \"@openzeppelin/contracts/access/Ownable.sol\";\n\npragma solidity 0.8.11;\n\ncontract Mintable721 is ERC721URIStorage,Ownable{\n    uint256 public _CUR_TOKEN_;\n\n    constructor(string memory _name,string memory _symbol)ERC721(_name,_symbol){}\n\n    function mint(\n        address[] calldata receivers,\n        string[] calldata uris\n    )external onlyOwner{\n        // require(receivers.length == uris.length,\"PARAMS NOT MATCHED\");\n\n        for(uint256 i = 0 ; i < receivers.length ; i++){\n            _safeMint(receivers[i],_CUR_TOKEN_);\n            _setTokenURI(_CUR_TOKEN_,uris[i]);\n            _CUR_TOKEN_ = _CUR_TOKEN_+1;\n        }\n    }\n}",
  "sourcePath": "/Users/songen/Desktop/123/truffle/contracts/Mintable721.sol",
  "compiler": {
    "name": "solc",
    "version": "0.8.11+commit.d7f03943.Emscripten.clang"
  },
  "schemaVersion": "3.4.13",
  "updatedAt": "2023-04-05T17:14:53.053Z",
  "networkType": "ethereum",
  "devdoc": {
    "kind": "dev",
    "methods": {
      "approve(address,uint256)": {
        "details": "See {IERC721-approve}."
      },
      "balanceOf(address)": {
        "details": "See {IERC721-balanceOf}."
      },
      "getApproved(uint256)": {
        "details": "See {IERC721-getApproved}."
      },
      "isApprovedForAll(address,address)": {
        "details": "See {IERC721-isApprovedForAll}."
      },
      "name()": {
        "details": "See {IERC721Metadata-name}."
      },
      "owner()": {
        "details": "Returns the address of the current owner."
      },
      "ownerOf(uint256)": {
        "details": "See {IERC721-ownerOf}."
      },
      "renounceOwnership()": {
        "details": "Leaves the contract without owner. It will not be possible to call `onlyOwner` functions anymore. Can only be called by the current owner. NOTE: Renouncing ownership will leave the contract without an owner, thereby removing any functionality that is only available to the owner."
      },
      "safeTransferFrom(address,address,uint256)": {
        "details": "See {IERC721-safeTransferFrom}."
      },
      "safeTransferFrom(address,address,uint256,bytes)": {
        "details": "See {IERC721-safeTransferFrom}."
      },
      "setApprovalForAll(address,bool)": {
        "details": "See {IERC721-setApprovalForAll}."
      },
      "supportsInterface(bytes4)": {
        "details": "See {IERC165-supportsInterface}."
      },
      "symbol()": {
        "details": "See {IERC721Metadata-symbol}."
      },
      "tokenURI(uint256)": {
        "details": "See {IERC721Metadata-tokenURI}."
      },
      "transferFrom(address,address,uint256)": {
        "details": "See {IERC721-transferFrom}."
      },
      "transferOwnership(address)": {
        "details": "Transfers ownership of the contract to a new account (`newOwner`). Can only be called by the current owner."
      }
    },
    "version": 1
  },
  "userdoc": {
    "kind": "user",
    "methods": {},
    "version": 1
  }
}